S00C0000536166652E7372656399
S11300000C942A000C9447000C9447000C9447006D
S11300100C9447000C9447000C9447000C94470040
S11300200C9447000C9447000C9447000C94470030
S11300300C9447000C9447000C9447000C94470020
S11300400C9447000C9447000C9447000C94470010
S11300500C94470011241FBECFE5D8E0DEBFCDBF0E
S113006010E0A0E6B0E0E8EDFBE002C005900D92E0
S1130070AE3DB107D9F710E0AEEDB0E001C01D927E
S1130080AF3DB107E1F70E9475040C94EA050C94A6
S11300900000823451F1833420F4813409F07BC0B0
S11300A007C0833409F43EC0843409F074C057C0D7
S11300B0413069F42AB381E090E0AC0102C0440FFE
S11300C0551F6A95E2F7BA01622B6ABB08952AB3F9
S11300D081E090E0AC0102C0440F551F6A95E2F73D
S11300E0BA01609562236ABB0895413069F427B36D
S11300F081E090E0AC0102C0440F551F6A95E2F71D
S1130100BA01622B67BB089527B381E090E0AC018C
S113011002C0440F551F6A95E2F7BA016095622345
S113012067BB0895413069F424B381E090E0AC01E9
S113013002C0440F551F6A95E2F7BA01622B64BBF3
S1130140089524B381E090E0AC0102C0440F551F30
S11301506A95E2F7BA016095622364BB0895413061
S113016069F421B381E090E0AC0102C0440F551F53
S11301706A95E2F7BA01622B61BB089521B381E06D
S113018090E0AC0102C0440F551F6A95E2F7BA0132
S11301906095622361BB0895823451F1833420F465
S11301A0813409F07BC007C0833409F43EC0843431
S11301B009F074C057C0413069F42BB381E090E07A
S11301C0AC0102C0440F551F6A95E2F7BA01622BD5
S11301D06BBB08952BB381E090E0AC0102C0440FE7
S11301E0551F6A95E2F7BA01609562236BBB0895C7
S11301F0413069F428B381E090E0AC0102C0440FBF
S1130200551F6A95E2F7BA01622B68BB089528B3BB
S113021081E090E0AC0102C0440F551F6A95E2F7FB
S1130220BA016095622368BB0895413069F425B32F
S113023081E090E0AC0102C0440F551F6A95E2F7DB
S1130240BA01622B65BB089525B381E090E0AC014F
S113025002C0440F551F6A95E2F7BA016095622304
S113026065BB0895413069F422B381E090E0AC01AC
S113027002C0440F551F6A95E2F7BA01622B62BBB4
S1130280089522B381E090E0AC0102C0440F551FF1
S11302906A95E2F7BA016095622362BB08958234DD
S11302A0F1F0833420F4813409F04FC006C0833464
S11302B041F1843409F049C036C029B381E090E0AB
S11302C0062E02C0880F991F0A94E2F730E08223B9
S11302D0932302C0959587956A95E2F7089526B30E
S11302E081E090E0062E02C0880F991F0A94E2F77D
S11302F030E08223932302C0959587956A95E2F7AF
S1130300089523B381E090E0062E02C0880F991F60
S11303100A94E2F730E08223932302C095958795EF
S11303206A95E2F7089520B381E090E0062E02C0BA
S1130330880F991F0A94E2F730E08223932302C0C6
S1130340959587956A95E2F7089580E0089582343B
S1130350B9F0833418F48134C9F505C08334E9F065
S11303608434A1F527C02BB381E090E0AC0102C036
S1130370440F551F6A95E2F7BA0162276BBB0895D3
S113038028B381E090E0AC0102C0440F551F6A9588
S1130390E2F7BA01622768BB089525B381E090E0D3
S11303A0AC0102C0440F551F6A95E2F7BA016227F7
S11303B065BB089522B381E090E0AC0102C0440F14
S11303C0551F6A95E2F7BA01622762BB0895823429
S11303D061F0833418F4813469F405C0833439F04E
S11303E0843441F406C06ABB089567BB089564BBB6
S11303F0089561BB0895823461F0833418F4813424
S113040069F405C0833439F0843441F406C06BBB0D
S1130410089568BB089565BB089562BB089582344E
S113042061F0833418F4813471F405C0833439F0F5
S1130430843449F406C089B3089586B3089583B318
S1130440089580B3089580E00895823451F183348F
S113045020F4813409F07BC007C0833409F43EC022
S1130460843409F074C057C0413069F42BB381E07F
S113047090E0AC0102C0440F551F6A95E2F7BA013F
S1130480622B6BBB08952BB381E090E0AC0102C0FA
S1130490440F551F6A95E2F7BA01609562236BBB5E
S11304A00895413069F428B381E090E0AC0102C0C2
S11304B0440F551F6A95E2F7BA01622B68BB089591
S11304C028B381E090E0AC0102C0440F551F6A9547
S11304D0E2F7BA016095622368BB0895413069F47C
S11304E025B381E090E0AC0102C0440F551F6A952A
S11304F0E2F7BA01622B65BB089525B381E090E071
S1130500AC0102C0440F551F6A95E2F7BA01609529
S1130510622365BB0895413069F422B381E090E021
S1130520AC0102C0440F551F6A95E2F7BA01622B71
S113053062BB089522B381E090E0AC0102C0440F95
S1130540551F6A95E2F7BA016095622362BB08956C
S11305506F70823481F0833418F48134F1F405C06F
S1130560833479F08434C9F412C08BB3807F8BBB9D
S11305708BB3862B8BBB88B3807F88BB88B3862BD9
S113058088BB85B3807F85BB85B3862B85BB82B34F
S1130590807F82BB82B3682B62BB08956295607FC3
S11305A0823481F0833418F48134F1F405C0833447
S11305B079F08434C9F412C08BB38F708BBB8BB3C6
S11305C0862B8BBB88B38F7088BB88B3862B88BB84
S11305D085B38F7085BB85B3862B85BB82B38F7043
S11305E082BB82B3682B62BB08958EBB9FBB6DBB7D
S11305F0E29AE19AE199FECF08958EBB9FBBE09AFF
S11306008DB3089582E460E041E00E94490082E4F1
S113061061E041E00E94490082E462E041E00E941E
S1130620490082E463E041E00E94490082E464E01E
S113063040E00E94490082E465E040E00E944900F5
S113064082E466E040E00E94490082E467E040E022
S11306500E94490082E464E041E00E94250282E4B1
S113066065E041E00E94250282E466E041E00E94E8
S1130670250282E467E041E00E94250208950F9379
S11306801F93CF93DF93CDB7DEB760970FB6F8947F
S1130690DEBF0FBECDBFDE011196E0E6F0E080E1E3
S11306A001900D928150E1F700E082E460E041E0C6
S11306B00E94CC0082E461E041E00E94CC0082E42C
S11306C062E041E00E94CC0082E463E041E00E94E9
S11306D0CC0082E4602F40E00E94CC0010E0612F47
S11306E06C5F82E40E944F01882361F4E02FF0E004
S11306F0EE0FFF1FEE0FFF1FE10FF11DEC0FFD1FAB
S1130700818104C01F5F143051F70BC060960FB68F
S1130710F894DEBF0FBECDBFDF91CF911F910F9133
S113072008950F5F043009F68FEFF0CF84E460E0A2
S113073041E00E94CC008FE99FE00197F1F700C0EF
S1130740000084E460E040E00E94CC008FE99FE078
S11307500197F1F700C000000895682F81E40E941A
S1130760FB0184E461E040E00E94CC000E94960317
S11307708FEC97E00197F1F700C0000008958FEF28
S113078092E5A7E081509040A040E1F700C000004E
S113079081E460E041E00E94490081E461E041E0DD
S11307A00E94490081E462E041E00E94490081E442
S11307B063E041E00E94490081E464E041E00E947A
S11307C0490081E465E041E00E94490081E466E07B
S11307D041E00E94490081E467E041E00E94490051
S11307E084E460E041E00E94490084E462E041E086
S11307F00E94490084E461E041E00E94490084E4ED
S113080062E040E00E94CC0088E30E94AD03AFECBC
S1130810B7E01197F1F700C000008CE00E94AD032F
S11308208FEC97E00197F1F700C0000081E00E948F
S1130830AD03AFE1BEE41197F1F700C0000086E01C
S11308400E94AD038FEC97E00197F1F700C0000020
S11308500895682F81E40E94FB0184E461E041E093
S11308600E94CC000E9496038FEC97E00197F1F769
S113087000C000000895CF93DF93EC0188818823A2
S113088031F021960E94290489918823D9F7DF91B8
S1130890CF91089581E00E94AD038FE19EE401971A
S11308A0F1F700C000000895282F2150223070F481
S11308B0613170F4662371F0813019F4962F9158E8
S11308C00AC0823041F4962F915405C090E803C0C9
S11308D090E801C090E8892F0E94AD038FEC97E067
S11308E00197F1F700C0000008954F925F926F9254
S11308F07F928F929F92AF92BF92CF92DF92FF929C
S11309000F931F93CF93DF930E94BF030E940203B0
S113091008ED10E0FF24FA940F2EFEE8CF2EF0E04D
S1130920DF2EF02D0F2EFDE96F2EF0E07F2EF02D3F
S11309300F2EF9EA4F2EF0E05F2EF02D0F2EFEE77A
S11309408F2EF0E09F2EF02D0F2EF0E7AF2EF0E06B
S1130950BF2EF02D86E090E00E94FD028F3F09F04B
S113096056C0C5010E943B0482E061E00E94540429
S11309701092DE00C091DE00D0E00E943F03F80137
S1130980EC0FFD1F80838091DE00F801E80FF11D5C
S113099080818F3F79F38FEF92E5A7E081509040FB
S11309A0A040E1F700C000008091DE00F801E80FEC
S11309B0F11D90E060810E94F5028091DE00F80153
S11309C0E80FF11D80810E9429048FEF92E5A7E0D2
S11309D081509040A040E1F700C000006091DE002B
S11309E06F5F82E00E9454048AE20E94290480918D
S11309F0DE008F5F8093DE00863008F4BBCF86E094
S1130A0090E060E00E94F5020E944A04C1C086E0C2
S1130A1090E00E94FD02882309F0BAC08091D600BC
S1130A20813009F0D4C0C4010E943B0482E061E03B
S1130A300E9454041092D6001092DE00C091DE0091
S1130A40D0E00E943F03F801EC0FFD1F80838091EA
S1130A50DE00F801E80FF11D80818F3F79F38FEFFD
S1130A6092E5A7E081509040A040E1F700C000006B
S1130A708091DE00F801E80FF11D80810E942904B5
S1130A808FEF90E7A2E081509040A040E1F700C0D2
S1130A9000006091DE006F5F82E00E9454048AE2ED
S1130AA00E9429048091DE0090E00E94FD02909152
S1130AB0DE00F801E90FF11D2081821711F0D80141
S1130AC0FC929F5F9093DE00963008F4B7CF0E94AB
S1130AD04A04F80180818F3F09F040C081E062E060
S1130AE00E945404C6010E943B048FEF99E6A8E1DA
S1130AF081509040A040E1F700C000008091D700F1
S1130B0081508093D700882309F447C00E944A0487
S1130B1081E063E00E945404C3010E943B0480917D
S1130B20D700805D0E94290482E064E00E9454049E
S1130B30C2010E943B048FEF99E6A8E181509040E6
S1130B40A040E1F700C000000E944A04C4010E94D2
S1130B503B0482E061E00E9454041AC081E065E035
S1130B600E94540483EB90E00E943B048FEF99E6CB
S1130B70A8E181509040A040E1F700C0000082E06D
S1130B8063E00E9454048EEB90E00E943B040DC08D
S1130B908091D700882309F0DDCE82E064E00E94D2
S1130BA054048AEC90E00E943B0480E090E0DF91E2
S1130BB0CF911F910F91FF90DF90CF90BF90AF9096
S1130BC09F908F907F906F905F904F9008951092B8
S10B0BD0DE0034CFF894FFCFDE
S1130BD83738392F3435362A3132332D41303D2BCD
S1130BE85365742050617373776F72643A00456E6D
S1130BF87465722050617373776F72643A00577228
S1130C086F6E672050617373776F726400547269F2
S1130C186573204C6566743A0054727920416761A3
S1130C28696E0057656C6C20646F6E6521005361B2
S1130C386665204F70656E65640053616665206360
S1110C486C6F736564000103FFFFFFFFFFFF85
S9030000FC
